:020000040800F2
:1000000010040020D5000008BB080008B90800084B
:1000100000000000000000000000000000000000E0
:10002000000000000000000000000000BF08000801
:100030000000000000000000BD080008C108000822
:10004000E7000008E7000008E7000008E7000008F4
:10005000E7000008E7000008E7000008E7000008E4
:10006000E7000008E7000008E7000008E7000008D4
:10007000E7000008E7000008E7000008E7000008C4
:10008000E7000008E7000008E7000008E7000008B4
:10009000E7000008E7000008E7000008E7000008A4
:1000A000E7000008E7000008E7000008E700000894
:1000B000E7000008E7000008E7000008E700000884
:1000C0000348854600F08EF800480047A109000863
:1000D000100400200448804704480047FEE7FEE77C
:1000E000FEE7FEE7FEE7FEE709090008C100000899
:1000F00030B50B46014600202022012409E00D46C0
:10010000D5409D4205D31D469540491B2546954047
:1001100040191546521E002DF1DC30BDF0B51FB45C
:100120000646002082B005464024019100901BE065
:10013000019922460F46304600F020F8049A059BAC
:10014000801A994110D310461946224600F039F81A
:10015000361A8F410197224601200021009F00F0AE
:1001600030F838184D4100902046641E0028DFDC2E
:10017000019B00982946324607B0F0BD10B5202AF1
:1001800004DB0846203AD040002110BD0B46D34086
:10019000D0402024A21A91400843194610BDD2B283
:1001A00001E00270401C491EFBD270470022F6E7B6
:1001B00010B513460A4604461946FFF7F0FF2046DD
:1001C00010BD10B5202A04DB0146203A91400020E2
:1001D00010BD914020239C1A0346E34019439040F0
:1001E00010BD0000064C0125064E05E0E36807CC73
:1001F0002B430C3C98471034B442F7D3FFF764FF0D
:10020000C80A0008E80A000870B5044600F00EF8B5
:100210000546601C02D004480078241800F006F857
:10022000401BA042FAD370BD000000200148806846
:100230007047000000000020024881680278891899
:10024000816070470000002010B506480168102248
:1002500011430160002000F007F800F027F80020AB
:1002600010BD00000020024070B504460D4D7D20F9
:100270002978C000FFF73CFF01460B480068FFF7F4
:1002800037FF00F001FB002809D1042C07D200221F
:100290002146401E00F01EF800206C6070BD012059
:1002A00070BD0000000000200C00002008B50848C8
:1002B0008169012211438161816911400091C26904
:1002C00001040A43C261C0690840009008BD0000F3
:1002D0000010024010B500F031FB10BDF8B50F461C
:1002E00006005FD03D4D2868C007C00FB84209D254
:1002F000286840084000384328602868C007C00FBD
:10030000B8424FD13068364C81070CD5400704D530
:10031000606807210902084360606068F021884333
:10032000B168084360603078C0072CD0706801283D
:1003300010D0022811D0032812D021688907002983
:1003400030DA61688908890001436160FFF76EFF58
:10035000009011E021688903F1E721688901EEE747
:10036000616BC903EBE7FFF761FF0099411A1D4874
:10037000814201D90320F8BD60680C2108407168F2
:1003800089008842EFD12868C007C00FB8420BD956
:10039000286840084000384328602868C007C00F1C
:1003A000B84201D00120F8BD3078400706D560681A
:1003B000072109028843F1680843606000F018F8DB
:1003C0006168094A0906090F515CC840074908607D
:1003D0000020FFF749FF0020F8BD00000020024088
:1003E0000010024088130000B80A00080C0000202A
:1003F00030B519A30FCB89B06C460FC41AA30FCB2D
:100400000FC41D4A51680C200B4603401B48042BA7
:1004100005D01B4D082B04D00C2B00D1284609B069
:1004200030BD8B021B0F6C46E45CD26A04AB120732
:10043000120FC9039A5C890F022901D0032901D048
:10044000002301E0002328460021FFF767FE214634
:1004500000F05BFAE3E70000020304050607080961
:100460000A0B0C0D0E0F10100102030405060708FD
:10047000090A0B0C0D0E0F100010024000127A003A
:10048000006CDC02FEB5040070D02078F94EFA4D05
:10049000C00748D068680007800F01281FD068682F
:1004A0000007800F022804D16868C003800F02286B
:1004B00015D06168012919D001208004002901D0DC
:1004C000052917D02968B14329602968814329602B
:1004D000606800281BD0FFF7A9FE074613E02868D4
:1004E000800320D560680028CED01CE02868304307
:1004F0002860EDE7296801432960F7E7FFF796FEDA
:10050000C01B642870D828688003F7D50BE0FFF77C
:100510008DFE074604E0FFF789FEC01B6428F1D872
:1005200028688003F7D4207880073FD568680007E3
:10053000800F14D068680007800F022804D1686813
:10054000C003800F01280AD0E068002828681ED068
:10055000012108432860FFF769FE07460CE0286880
:1005600080070CD5E068012800D108E080E1FFF7A2
:100570005DFEC01B0228C5D828688007F7D528680B
:10058000F82188432169C900084328600EE040082B
:1005900040002860FFF74AFE074604E0FFF746FEEA
:1005A000C01B0228AED828688007F7D4207800073F
:1005B00023D5E0690028686A0FD0012108436862EA
:1005C000FFF734FE074604E0FFF730FEC01B0228A9
:1005D00098D8686A8007F7D50FE040084000686245
:1005E000FFF724FE074605E0C3E0FFF71FFEC01B30
:1005F000022887D8686A8007F7D420780427400744
:10060000002861DA00200190E869C00008D4E96997
:10061000B8060143E961E9690140012000910190B8
:1006200096480168C90511D401688215114301601B
:10063000FFF7FCFD009005E0FFF7F8FD0099401A78
:10064000642898D88D480068C005F5D5A0680128B1
:100650000AD0002801D0052811D0286A400840009F
:100660002862286AB84302E0286A01210843286208
:10067000A068002812D0FFF7D9FD00900AE0286A90
:1006800038432862F0E7FFF7D1FD0099411A7C4812
:1006900081426ED8286A8007F5D50DE0FFF7C6FDC8
:1006A000009006E0FFF7C2FD0099411A74488142AC
:1006B0005FD8286A8007F5D40198002804D0E9693A
:1006C000012000078143E9612078C00635D56069C3
:1006D00001280CD0401D686B24D038436863686BD8
:1006E000400840006863FFF7A1FD074622E0686B01
:1006F00038436863686B012108436863FFF796FD20
:10070000074604E0FFF792FDC01B022831D8686B52
:100710008007F7D5686BF8218843A169C9000843B1
:1007200068630AE0B8436863F4E7FFF77FFDC01B26
:1007300002281ED8686B8007F7D42078800637D54A
:1007400068680007800F032814D068680007800FCE
:10075000022804D16868C003800F03280AD0206AE9
:100760000028686B16D030436863FFF75FFD0646CC
:100770000CE062E0686BC0031AD5206A012877D1CB
:1007800016E0FFF753FD801B022856D8686BC003A4
:10079000F7D50DE0B0436863FFF748FD064604E077
:1007A000FFF744FD801B022847D8686BC003F7D4CD
:1007B000606A002866D069680907890F022942D05B
:1007C000012636060228286805D0B0432860FFF7C6
:1007D0002DFD044633E0B0432860FFF727FD0746B0
:1007E00004E0FFF723FDC01B022826D828688001FB
:1007F000F7D4E86A216B000900010843E862A16AA6
:10080000E06A084369687B22D20391430843686029
:10081000286830432860FFF709FD044604E0FFF72D
:1008200005FD001B022808D828688001F7D529E0BB
:10083000FFF7FCFC001B022801D90320FEBD28683D
:100840008001F5D41EE00128F8D06868E96A032227
:10085000D203A36A02409A420AD10907226B090F08
:10086000914205D10F2189040840E16A884209D0EC
:100870000120FEBD00000100001002400070004099
:10088000881300000020F4E7094910B5401E884293
:1008900001D9012010BD074C60610321081F00F041
:1008A0004DF80020A06107202061002010BD00004D
:1008B000FFFFFF0000E000E0FEE770477047704771
:1008C00010B5FFF7B9FC10BD10B592B034216846E1
:1008D000FFF76CFC00240F94022000900D9401207F
:1008E0000E94039010200994049010946846FFF72A
:1008F000C9FD07200D900E940F94002110940DA8AF
:10090000FFF7ECFC12B010BD7047F8B5040C8BB2C9
:10091000264682B25E430D0C1046370C584336040F
:1009200080190021794116466E43370C3604801930
:10093000794126466E438919F8BD00008307FF22DE
:10094000DB0E9A408907090E9940002808DB8308CE
:1009500009489B001B1818689043084318607047AB
:100960000007000F0838830804489B001B18D8694B
:1009700090430843D861704700E400E000ED00E0D8
:1009800002E008C8121F08C1002AFAD17047704758
:10099000002001E001C1121F002AFBD170470000B6
:1009A00008B5FFF751FCFFF78FFF35484169072273
:1009B0005204114341618169821411438161314CB8
:1009C0002068552109030843206000206060A06072
:1009D000E0602D4D2868E021084328602868511008
:1009E00008432860294801681322D201114301609D
:1009F0000920C00601680201114301602868110C3A
:100A000008432860286849100843286028680421A2
:100A10000843286068680F21090208436860296854
:100A20004020014329606269C1000A436261870076
:100A3000802660694021884360616069B0436061DD
:100A40006069B84360617D20C000FFF7DDFB60692D
:100A50000121490248406061A868A868000A02D0E4
:100A6000606938436061A868C00802D0606930439B
:100A7000606107A000680090684600F011F8D8E7B0
:100A80000010024000080048003001400004004807
:100A90004869000001498A68C86070470030014019
:100AA00010B503460024007803E0FFF7F3FF641C51
:100AB000185D0028F9D110BD000000000000000002
:100AC0000102030406070809E80A000800000020E4
:100AD0001000000080090008F80A0008100000203B
:100AE000000400009009000801000000040000005C
:080AF0000000000000127A0072
:04000005080000C12E
:00000001FF
