:020000040800F2
:1000000040050020D5000008190B0008990A0008D7
:1000100000000000000000000000000000000000E0
:100020000000000000000000000000001D0B0008A0
:1000300000000000000000001B0B00081F0B000860
:10004000E7000008E7000008E7000008E7000008F4
:10005000E7000008E7000008E7000008E7000008E4
:10006000E7000008E7000008E7000008E7000008D4
:10007000E7000008E7000008E7000008E7000008C4
:10008000E7000008E7000008E7000008E7000008B4
:10009000E7000008E7000008E7000008E7000008A4
:1000A000E7000008E7000008E7000008E700000894
:1000B000E7000008E7000008E7000008E700000884
:1000C0000348854600F0A0F800480047FD0B0008F3
:1000D000400500200448804704480047FEE7FEE74B
:1000E000FEE7FEE7FEE7FEE7670B0008C100000839
:1000F00030B50B46014600202022012409E00D46C0
:10010000D5409D4205D31D469540491B2546954047
:1001100040191546521E002DF1DC30BDF0B51FB45C
:100120000646002082B005464024019100901BE065
:10013000019922460F46304600F020F8049A059BAC
:10014000801A994110D310461946224600F04BF808
:10015000361A8F410197224601200021009F00F0AE
:1001600042F838184D4100902046641E0028DFDC1C
:10017000019B00982946324607B0F0BD10B5202AF1
:1001800004DB0846203AD040002110BD0B46D34086
:10019000D0402024A21A91400843194610BD0346BE
:1001A0000B439B0703D009E008C9121F08C0042AAB
:1001B000FAD203E00B780370401C491C521EF9D29E
:1001C0007047D2B201E00270401C491EFBD270475A
:1001D0000022F6E710B513460A4604461946FFF713
:1001E000F0FF204610BD10B5202A04DB0146203A5E
:1001F0009140002010BD914020239C1A0346E3400B
:100200001943904010BD0000064C0125064E05E044
:10021000E36807CC2B430C3C98471034B442F7D327
:10022000FFF752FFEC0D00080C0E000870B58C189B
:100230000578401C6B075B0F01D10378401C2A1125
:1002400006D10278401C03E006780E70401C491C61
:100250005B1EF9D12B0705D40023521E0DD40B7061
:10026000491CFAE70378401CCB1A921C03E01D7866
:100270000D70491C5B1C521EF9D5A142D8D3002039
:1002800070BD000070B5044600F0C0F80546601C63
:1002900002D004480078241800F0B8F8401BA042AF
:1002A000FAD370BD30010020F8B5002393E0224658
:1002B00001249C40A44622407ED04C68022C01D0F0
:1002C000122C0CD1DC08A40027183C6A5D07ED0E47
:1002D0000F26AE40B4430E69AE4026433E62056829
:1002E0005E000324B4400F79A543BF07BF0FB7409A
:1002F0002F4307604D68012D05D0022D03D0112D2D
:1003000001D0122D0ED18568CF68A543B7402F4389
:10031000876047686546AF430D79ED06ED0F9D4058
:100320003D434560C568A5438C68B4402C43C46018
:100330004C68E4004ED52B4CA56901263543A561D8
:10034000A4699D0834400094274CAD002F19BC6867
:100350009D072E0F0F25B540AC430925ED06A84299
:1003600001D1002514E0214DA84201D101250FE063
:100370001F4DA84201D102250AE01E4DA84201D11D
:10038000032505E01C4DA84201D1042500E0052508
:10039000B5402543BD60194C25684E689543F6036A
:1003A00000D51543256065684E689543B60300D5B2
:1003B00015436560A56800E00CE04E689543F602C1
:1003C00000D51543A560E5684E689543B60200D593
:1003D0001543E5605B1C0A681446DA4000D066E706
:1003E000F8BD000000100240000001400004004879
:1003F00000080048000C00480010004800040140BC
:10040000002A01D08161704781627047014880688D
:100410007047000030010020024881680278891886
:10042000816070473001002010B506480168102235
:1004300011430160002000F007F800F027F80020C9
:1004400010BD00000020024070B504460D4D7D2017
:100450002978C000FFF74CFE01460B480068FFF703
:1004600047FE00F001FB002809D1042C07D200222E
:100470002146401E00F01EF800206C6070BD012077
:1004800070BD0000300100203C01002008B5084884
:100490008169012211438161816911400091C26922
:1004A00001040A43C261C0690840009008BD000011
:1004B0000010024010B500F06FFB10BDF8B50F46FC
:1004C00006005FD03D4D2868C007C00FB84209D272
:1004D000286840084000384328602868C007C00FDB
:1004E000B8424FD13068364C81070CD5400704D54F
:1004F000606807210902084360606068F021884352
:10050000B168084360603078C0072CD0706801285B
:1005100010D0022811D0032812D0216889070029A1
:1005200030DA61688908890001436160FFF76EFF76
:10053000009011E021688903F1E721688901EEE765
:10054000616BC903EBE7FFF761FF0099411A1D4892
:10055000814201D90320F8BD60680C210840716810
:1005600089008842EFD12868C007C00FB8420BD974
:10057000286840084000384328602868C007C00F3A
:10058000B84201D00120F8BD3078400706D5606838
:10059000072109028843F1680843606000F018F8F9
:1005A0006168094A0906090F515CC840074908609B
:1005B0000020FFF749FF0020F8BD000000200240A6
:1005C0000010024088130000DC0D00083C010020F0
:1005D00030B519A30FCB89B06C460FC41AA30FCB4B
:1005E0000FC41D4A51680C200B4603401B48042BC6
:1005F00005D01B4D082B04D00C2B00D1284609B088
:1006000030BD8B021B0F6C46E45CD26A04AB120750
:10061000120FC9039A5C890F022901D0032901D066
:10062000002301E0002328460021FFF777FD214643
:1006300000F09AFAE3E70000020304050607080940
:100640000A0B0C0D0E0F101001020304050607081B
:10065000090A0B0C0D0E0F100010024000127A0058
:10066000006CDC02FEB5040070D02078F94EFA4D23
:10067000C00748D068680007800F01281FD068684D
:100680000007800F022804D16868C003800F022889
:1006900015D06168012919D001208004002901D0FA
:1006A000052917D02968B143296029688143296049
:1006B000606800281BD0FFF7A9FE074613E02868F2
:1006C000800320D560680028CED01CE02868304325
:1006D0002860EDE7296801432960F7E7FFF796FEF8
:1006E000C01B642870D828688003F7D50BE0FFF79B
:1006F0008DFE074604E0FFF789FEC01B6428F1D891
:1007000028688003F7D4207880073FD56868000701
:10071000800F14D068680007800F022804D1686831
:10072000C003800F01280AD0E068002828681ED086
:10073000012108432860FFF769FE07460CE028689E
:1007400080070CD5E068012800D108E080E1FFF7C0
:100750005DFEC01B0228C5D828688007F7D5286829
:10076000F82188432169C900084328600EE0400849
:1007700040002860FFF74AFE074604E0FFF746FE08
:10078000C01B0228AED828688007F7D4207800075D
:1007900023D5E0690028686A0FD001210843686208
:1007A000FFF734FE074604E0FFF730FEC01B0228C7
:1007B00098D8686A8007F7D50FE040084000686263
:1007C000FFF724FE074605E0C3E0FFF71FFEC01B4E
:1007D000022887D8686A8007F7D420780427400762
:1007E000002861DA00200190E869C00008D4E969B6
:1007F000B8060143E961E9690140012000910190D7
:1008000096480168C90511D4016882151143016039
:10081000FFF7FCFD009005E0FFF7F8FD0099401A96
:10082000642898D88D480068C005F5D5A0680128CF
:100830000AD0002801D0052811D0286A40084000BD
:100840002862286AB84302E0286A01210843286226
:10085000A068002812D0FFF7D9FD00900AE0286AAE
:1008600038432862F0E7FFF7D1FD0099411A7C4830
:1008700081426ED8286A8007F5D50DE0FFF7C6FDE6
:10088000009006E0FFF7C2FD0099411A74488142CA
:100890005FD8286A8007F5D40198002804D0E96958
:1008A000012000078143E9612078C00635D56069E1
:1008B00001280CD0401D686B24D038436863686BF6
:1008C000400840006863FFF7A1FD074622E0686B1F
:1008D00038436863686B012108436863FFF796FD3E
:1008E000074604E0FFF792FDC01B022831D8686B71
:1008F0008007F7D5686BF8218843A169C9000843D0
:1009000068630AE0B8436863F4E7FFF77FFDC01B44
:1009100002281ED8686B8007F7D42078800637D568
:1009200068680007800F032814D068680007800FEC
:10093000022804D16868C003800F03280AD0206A07
:100940000028686B16D030436863FFF75FFD0646EA
:100950000CE062E0686BC0031AD5206A012877D1E9
:1009600016E0FFF753FD801B022856D8686BC003C2
:10097000F7D50DE0B0436863FFF748FD064604E095
:10098000FFF744FD801B022847D8686BC003F7D4EB
:10099000606A002866D069680907890F022942D079
:1009A000012636060228286805D0B0432860FFF7E4
:1009B0002DFD044633E0B0432860FFF727FD0746CE
:1009C00004E0FFF723FDC01B022826D82868800119
:1009D000F7D4E86A216B000900010843E862A16AC4
:1009E000E06A084369687B22D20391430843686048
:1009F000286830432860FFF709FD044604E0FFF74C
:100A000005FD001B022808D828688001F7D529E0D9
:100A1000FFF7FCFC001B022801D90320FEBD28685B
:100A20008001F5D41EE00128F8D06868E96A032245
:100A3000D203A36A02409A420AD10907226B090F26
:100A4000914205D10F2189040840E16A884209D00A
:100A50000120FEBD000001000010024000700040B7
:100A6000881300000020F4E7094910B5401E8842B1
:100A700001D9012010BD074C60610321081F00F05F
:100A80008BF80020A06107202061002010BD00002D
:100A9000FFFFFF0000E000E0FEE7000070B58CB053
:100AA00014216846FFF794FB142105A8FFF790FB7B
:100AB00017484269012109050A43426142690A4017
:100AC0000A924269C9100A434261406909260840F6
:100AD000F6060A900022B0213046FFF791FC8020F4
:100AE00005900120122500240790069505A9089479
:100AF0003046FFF7D9FB30200090029469460195FB
:100B000003943046FFF7D0FB024804620CB070BD7E
:100B1000001002400004004870477047704710B54D
:100B2000FFF77AFC10BD10B592B034216846FFF78C
:100B30004FFB00240F94022000900D9401200E948E
:100B4000039010200994049010946846FFF78AFDE2
:100B500007200D900E940F94002110940DA8FFF71C
:100B6000ADFC12B010BD7047F8B5040C8BB2264630
:100B700082B25E430D0C1046370C58433604801980
:100B80000021794116466E43370C360480197941AD
:100B900026466E438919F8BD8307FF22DB0E9A4073
:100BA0008907090E9940002808DB830809489B0043
:100BB0001B18186890430843186070470007000F1F
:100BC0000838830804489B001B18D86990430843E1
:100BD000D861704700E400E000ED00E002E008C8E2
:100BE000121F08C1002AFAD170477047002001E0A7
:100BF00001C1121F002AFBD17047000090B0FFF71F
:100C000013FCFFF790FF224842690121C9040A43FF
:100C10004261406908400F90FFF740FF00F040F844
:100C200014221C496846FFF7BAFA1B4C6946204655
:100C3000FFF73AFB17491422143105A8FFF7AFFA62
:100C400005A92046FFF730FB1249142228310AA8D3
:100C5000FFF7A5FA0AA92046FFF726FB0122550255
:100C600029462046FFF7CCFB7D26F60001222946C7
:100C70002046FFF7C5FB09A000F068F800222946CE
:100C80002046FFF7BDFB3046FFF7FCFAEEE7000019
:100C900000100240A00D000800080048484900006C
:100CA00010B50021092000F02DF803210A2000F0E2
:100CB00029F807210B2000F025F801210C2000F075
:100CC00021F800210F2000F01DF810BD70B50024A0
:100CD00009260546F606002220213046FFF790FB44
:100CE000EA09D20180213046FFF78AFB6806050E2B
:100CF000012220213046FFF783FB641C082CEADB2D
:100D000070BD0000F8B5104C0F4606460122802148
:100D10002046FFF775FB0925ED06002240212846F5
:100D2000FFF76EFB3046FFF7D1FF3846FFF7CEFFE7
:100D3000012240212846FFF763FB00228021204644
:100D4000FFF75EFBF8BD000000080048F8B5124F41
:100D50000546012240213846FFF752FB0F4E12E0B4
:100D600001242878C00080190019FF38C138C179E2
:100D7000E0B2FFF7C7FF641C092CF2DBFF20F5305F
:100D80006D1CFFF77FFA28780028E9D10022402166
:100D90003846FFF735FBF8BD00080048000000208A
:100DA0000002000001000000000000000000000040
:100DB00000000000C0000000010000000000000072
:100DC0000000000000000000000100000000000022
:100DD0000000000000000000000000000000000013
:100DE0000000000001020304060708090C0E0008B9
:100DF00000000020400100002C020008F00E000856
:100E00004001002000040000EC0B00083B3C4201C4
:100E10001E3C1030501001280D7C7E02027E4040A6
:100E2000407E3E02020311101008182848FE0808F0
:100E3000083C20203C04043C29081424243C1C3E8B
:100E40002204161B0808092A220329041A02312E3B
:100E5000182442427E512B222203111A3C4D1901C3
:100E60003C3C7C22011D7C7C4040036A40082A40B7
:100E70002018094C44443C4444447C042B447C8664
:100E800019883A3C5E13483048082428302030281E
:100E900024471808407C81C3A5998101111742623B
:100EA000524A464269C0196D1A229C2B201C663C8E
:100EB00026221D10142422211C1E20209919B1392C
:100EC000514A082F4B221C081324181A4901232ABF
:100ED0001C2808412214081422410739D8000810A0
:100EE0007F02040810207F3201820413127A00006E
:04000005080000C12E
:00000001FF
